{
  "_format": "hh-sol-artifact-1",
  "contractName": "ITHOURS",
  "sourceName": "contracts/ithoursNFT.sol",
  "abi": [
    {
      "inputs": [],
      "stateMutability": "nonpayable",
      "type": "constructor"
    },
    {
      "anonymous": false,
      "inputs": [
        {
          "indexed": true,
          "internalType": "address",
          "name": "owner",
          "type": "address"
        },
        {
          "indexed": true,
          "internalType": "address",
          "name": "approved",
          "type": "address"
        },
        {
          "indexed": true,
          "internalType": "uint256",
          "name": "tokenId",
          "type": "uint256"
        }
      ],
      "name": "Approval",
      "type": "event"
    },
    {
      "anonymous": false,
      "inputs": [
        {
          "indexed": true,
          "internalType": "address",
          "name": "owner",
          "type": "address"
        },
        {
          "indexed": true,
          "internalType": "address",
          "name": "operator",
          "type": "address"
        },
        {
          "indexed": false,
          "internalType": "bool",
          "name": "approved",
          "type": "bool"
        }
      ],
      "name": "ApprovalForAll",
      "type": "event"
    },
    {
      "anonymous": false,
      "inputs": [
        {
          "indexed": true,
          "internalType": "address",
          "name": "from",
          "type": "address"
        },
        {
          "indexed": true,
          "internalType": "address",
          "name": "to",
          "type": "address"
        },
        {
          "indexed": true,
          "internalType": "uint256",
          "name": "tokenId",
          "type": "uint256"
        }
      ],
      "name": "Transfer",
      "type": "event"
    },
    {
      "inputs": [
        {
          "internalType": "address",
          "name": "to",
          "type": "address"
        },
        {
          "internalType": "uint256",
          "name": "tokenId",
          "type": "uint256"
        }
      ],
      "name": "approve",
      "outputs": [],
      "stateMutability": "nonpayable",
      "type": "function"
    },
    {
      "inputs": [
        {
          "internalType": "address",
          "name": "owner",
          "type": "address"
        }
      ],
      "name": "balanceOf",
      "outputs": [
        {
          "internalType": "uint256",
          "name": "",
          "type": "uint256"
        }
      ],
      "stateMutability": "view",
      "type": "function"
    },
    {
      "inputs": [
        {
          "internalType": "uint256",
          "name": "tokenId",
          "type": "uint256"
        }
      ],
      "name": "getApproved",
      "outputs": [
        {
          "internalType": "address",
          "name": "",
          "type": "address"
        }
      ],
      "stateMutability": "view",
      "type": "function"
    },
    {
      "inputs": [
        {
          "internalType": "address",
          "name": "owner",
          "type": "address"
        },
        {
          "internalType": "address",
          "name": "operator",
          "type": "address"
        }
      ],
      "name": "isApprovedForAll",
      "outputs": [
        {
          "internalType": "bool",
          "name": "",
          "type": "bool"
        }
      ],
      "stateMutability": "view",
      "type": "function"
    },
    {
      "inputs": [],
      "name": "name",
      "outputs": [
        {
          "internalType": "string",
          "name": "",
          "type": "string"
        }
      ],
      "stateMutability": "view",
      "type": "function"
    },
    {
      "inputs": [
        {
          "internalType": "uint256",
          "name": "tokenId",
          "type": "uint256"
        }
      ],
      "name": "ownerOf",
      "outputs": [
        {
          "internalType": "address",
          "name": "",
          "type": "address"
        }
      ],
      "stateMutability": "view",
      "type": "function"
    },
    {
      "inputs": [
        {
          "internalType": "address",
          "name": "to",
          "type": "address"
        },
        {
          "internalType": "string",
          "name": "uri",
          "type": "string"
        }
      ],
      "name": "safeMint",
      "outputs": [],
      "stateMutability": "nonpayable",
      "type": "function"
    },
    {
      "inputs": [
        {
          "internalType": "address",
          "name": "from",
          "type": "address"
        },
        {
          "internalType": "address",
          "name": "to",
          "type": "address"
        },
        {
          "internalType": "uint256",
          "name": "tokenId",
          "type": "uint256"
        }
      ],
      "name": "safeTransferFrom",
      "outputs": [],
      "stateMutability": "nonpayable",
      "type": "function"
    },
    {
      "inputs": [
        {
          "internalType": "address",
          "name": "from",
          "type": "address"
        },
        {
          "internalType": "address",
          "name": "to",
          "type": "address"
        },
        {
          "internalType": "uint256",
          "name": "tokenId",
          "type": "uint256"
        },
        {
          "internalType": "bytes",
          "name": "_data",
          "type": "bytes"
        }
      ],
      "name": "safeTransferFrom",
      "outputs": [],
      "stateMutability": "nonpayable",
      "type": "function"
    },
    {
      "inputs": [
        {
          "internalType": "address",
          "name": "operator",
          "type": "address"
        },
        {
          "internalType": "bool",
          "name": "approved",
          "type": "bool"
        }
      ],
      "name": "setApprovalForAll",
      "outputs": [],
      "stateMutability": "nonpayable",
      "type": "function"
    },
    {
      "inputs": [
        {
          "internalType": "bytes4",
          "name": "interfaceId",
          "type": "bytes4"
        }
      ],
      "name": "supportsInterface",
      "outputs": [
        {
          "internalType": "bool",
          "name": "",
          "type": "bool"
        }
      ],
      "stateMutability": "view",
      "type": "function"
    },
    {
      "inputs": [],
      "name": "symbol",
      "outputs": [
        {
          "internalType": "string",
          "name": "",
          "type": "string"
        }
      ],
      "stateMutability": "view",
      "type": "function"
    },
    {
      "inputs": [
        {
          "internalType": "uint256",
          "name": "index",
          "type": "uint256"
        }
      ],
      "name": "tokenByIndex",
      "outputs": [
        {
          "internalType": "uint256",
          "name": "",
          "type": "uint256"
        }
      ],
      "stateMutability": "view",
      "type": "function"
    },
    {
      "inputs": [
        {
          "internalType": "address",
          "name": "owner",
          "type": "address"
        },
        {
          "internalType": "uint256",
          "name": "index",
          "type": "uint256"
        }
      ],
      "name": "tokenOfOwnerByIndex",
      "outputs": [
        {
          "internalType": "uint256",
          "name": "",
          "type": "uint256"
        }
      ],
      "stateMutability": "view",
      "type": "function"
    },
    {
      "inputs": [
        {
          "internalType": "uint256",
          "name": "tokenId",
          "type": "uint256"
        }
      ],
      "name": "tokenURI",
      "outputs": [
        {
          "internalType": "string",
          "name": "",
          "type": "string"
        }
      ],
      "stateMutability": "view",
      "type": "function"
    },
    {
      "inputs": [],
      "name": "totalSupply",
      "outputs": [
        {
          "internalType": "uint256",
          "name": "",
          "type": "uint256"
        }
      ],
      "stateMutability": "view",
      "type": "function"
    },
    {
      "inputs": [
        {
          "internalType": "address",
          "name": "from",
          "type": "address"
        },
        {
          "internalType": "address",
          "name": "to",
          "type": "address"
        },
        {
          "internalType": "uint256",
          "name": "tokenId",
          "type": "uint256"
        }
      ],
      "name": "transferFrom",
      "outputs": [],
      "stateMutability": "nonpayable",
      "type": "function"
    }
  ],
  "bytecode": "0x6080604052611388600c553480156200001757600080fd5b506040518060400160405280600781526020017f4954484f555253000000000000000000000000000000000000000000000000008152506040518060400160405280600381526020017f495448000000000000000000000000000000000000000000000000000000000081525081600090805190602001906200009c929190620000be565b508060019080519060200190620000b5929190620000be565b505050620001d3565b828054620000cc906200019d565b90600052602060002090601f016020900481019282620000f057600085556200013c565b82601f106200010b57805160ff19168380011785556200013c565b828001600101855582156200013c579182015b828111156200013b5782518255916020019190600101906200011e565b5b5090506200014b91906200014f565b5090565b5b808211156200016a57600081600090555060010162000150565b5090565b7f4e487b7100000000000000000000000000000000000000000000000000000000600052602260045260246000fd5b60006002820490506001821680620001b657607f821691505b60208210811415620001cd57620001cc6200016e565b5b50919050565b6134b580620001e36000396000f3fe608060405234801561001057600080fd5b506004361061010b5760003560e01c80634f6ccce7116100a2578063a22cb46511610071578063a22cb465146102de578063b88d4fde146102fa578063c87b56dd14610316578063d204c45e14610346578063e985e9c5146103625761010b565b80634f6ccce7146102305780636352211e1461026057806370a082311461029057806395d89b41146102c05761010b565b806318160ddd116100de57806318160ddd146101aa57806323b872dd146101c85780632f745c59146101e457806342842e0e146102145761010b565b806301ffc9a71461011057806306fdde0314610140578063081812fc1461015e578063095ea7b31461018e575b600080fd5b61012a60048036038101906101259190612032565b610392565b604051610137919061207a565b60405180910390f35b6101486103a4565b604051610155919061212e565b60405180910390f35b61017860048036038101906101739190612186565b610436565b60405161018591906121f4565b60405180910390f35b6101a860048036038101906101a3919061223b565b6104bb565b005b6101b26105d3565b6040516101bf919061228a565b60405180910390f35b6101e260048036038101906101dd91906122a5565b6105e0565b005b6101fe60048036038101906101f9919061223b565b610640565b60405161020b919061228a565b60405180910390f35b61022e600480360381019061022991906122a5565b6106e5565b005b61024a60048036038101906102459190612186565b610705565b604051610257919061228a565b60405180910390f35b61027a60048036038101906102759190612186565b610776565b60405161028791906121f4565b60405180910390f35b6102aa60048036038101906102a591906122f8565b610828565b6040516102b7919061228a565b60405180910390f35b6102c86108e0565b6040516102d5919061212e565b60405180910390f35b6102f860048036038101906102f39190612351565b610972565b005b610314600480360381019061030f91906124c6565b610af3565b005b610330600480360381019061032b9190612186565b610b55565b60405161033d919061212e565b60405180910390f35b610360600480360381019061035b91906125ea565b610b67565b005b61037c60048036038101906103779190612646565b610bdd565b604051610389919061207a565b60405180910390f35b600061039d82610c71565b9050919050565b6060600080546103b3906126b5565b80601f01602080910402602001604051908101604052809291908181526020018280546103df906126b5565b801561042c5780601f106104015761010080835404028352916020019161042c565b820191906000526020600020905b81548152906001019060200180831161040f57829003601f168201915b5050505050905090565b600061044182610ceb565b610480576040517f08c379a000000000000000000000000000000000000000000000000000000000815260040161047790612759565b60405180910390fd5b6004600083815260200190815260200160002060009054906101000a900473ffffffffffffffffffffffffffffffffffffffff169050919050565b60006104c682610776565b90508073ffffffffffffffffffffffffffffffffffffffff168373ffffffffffffffffffffffffffffffffffffffff161415610537576040517f08c379a000000000000000000000000000000000000000000000000000000000815260040161052e906127eb565b60405180910390fd5b8073ffffffffffffffffffffffffffffffffffffffff16610556610d57565b73ffffffffffffffffffffffffffffffffffffffff16148061058557506105848161057f610d57565b610bdd565b5b6105c4576040517f08c379a00000000000000000000000000000000000000000000000000000000081526004016105bb9061287d565b60405180910390fd5b6105ce8383610d5f565b505050565b6000600880549050905090565b6105f16105eb610d57565b82610e18565b610630576040517f08c379a00000000000000000000000000000000000000000000000000000000081526004016106279061290f565b60405180910390fd5b61063b838383610ef6565b505050565b600061064b83610828565b821061068c576040517f08c379a0000000000000000000000000000000000000000000000000000000008152600401610683906129a1565b60405180910390fd5b600660008473ffffffffffffffffffffffffffffffffffffffff1673ffffffffffffffffffffffffffffffffffffffff168152602001908152602001600020600083815260200190815260200160002054905092915050565b61070083838360405180602001604052806000815250610af3565b505050565b600061070f6105d3565b8210610750576040517f08c379a000000000000000000000000000000000000000000000000000000000815260040161074790612a33565b60405180910390fd5b6008828154811061076457610763612a53565b5b90600052602060002001549050919050565b6000806002600084815260200190815260200160002060009054906101000a900473ffffffffffffffffffffffffffffffffffffffff169050600073ffffffffffffffffffffffffffffffffffffffff168173ffffffffffffffffffffffffffffffffffffffff16141561081f576040517f08c379a000000000000000000000000000000000000000000000000000000000815260040161081690612af4565b60405180910390fd5b80915050919050565b60008073ffffffffffffffffffffffffffffffffffffffff168273ffffffffffffffffffffffffffffffffffffffff161415610899576040517f08c379a000000000000000000000000000000000000000000000000000000000815260040161089090612b86565b60405180910390fd5b600360008373ffffffffffffffffffffffffffffffffffffffff1673ffffffffffffffffffffffffffffffffffffffff168152602001908152602001600020549050919050565b6060600180546108ef906126b5565b80601f016020809104026020016040519081016040528092919081815260200182805461091b906126b5565b80156109685780601f1061093d57610100808354040283529160200191610968565b820191906000526020600020905b81548152906001019060200180831161094b57829003601f168201915b5050505050905090565b61097a610d57565b73ffffffffffffffffffffffffffffffffffffffff168273ffffffffffffffffffffffffffffffffffffffff1614156109e8576040517f08c379a00000000000000000000000000000000000000000000000000000000081526004016109df90612bf2565b60405180910390fd5b80600560006109f5610d57565b73ffffffffffffffffffffffffffffffffffffffff1673ffffffffffffffffffffffffffffffffffffffff16815260200190815260200160002060008473ffffffffffffffffffffffffffffffffffffffff1673ffffffffffffffffffffffffffffffffffffffff16815260200190815260200160002060006101000a81548160ff0219169083151502179055508173ffffffffffffffffffffffffffffffffffffffff16610aa2610d57565b73ffffffffffffffffffffffffffffffffffffffff167f17307eab39ab6107e8899845ad3d59bd9653f200f220920489ca2b5937696c3183604051610ae7919061207a565b60405180910390a35050565b610b04610afe610d57565b83610e18565b610b43576040517f08c379a0000000000000000000000000000000000000000000000000000000008152600401610b3a9061290f565b60405180910390fd5b610b4f84848484611152565b50505050565b6060610b60826111ae565b9050919050565b6000610b73600b611300565b9050600c54811115610bba576040517f08c379a0000000000000000000000000000000000000000000000000000000008152600401610bb190612c84565b60405180910390fd5b610bc4600b61130e565b610bce8382611324565b610bd88183611342565b505050565b6000600560008473ffffffffffffffffffffffffffffffffffffffff1673ffffffffffffffffffffffffffffffffffffffff16815260200190815260200160002060008373ffffffffffffffffffffffffffffffffffffffff1673ffffffffffffffffffffffffffffffffffffffff16815260200190815260200160002060009054906101000a900460ff16905092915050565b60007f780e9d63000000000000000000000000000000000000000000000000000000007bffffffffffffffffffffffffffffffffffffffffffffffffffffffff1916827bffffffffffffffffffffffffffffffffffffffffffffffffffffffff19161480610ce45750610ce3826113b6565b5b9050919050565b60008073ffffffffffffffffffffffffffffffffffffffff166002600084815260200190815260200160002060009054906101000a900473ffffffffffffffffffffffffffffffffffffffff1673ffffffffffffffffffffffffffffffffffffffff1614159050919050565b600033905090565b816004600083815260200190815260200160002060006101000a81548173ffffffffffffffffffffffffffffffffffffffff021916908373ffffffffffffffffffffffffffffffffffffffff160217905550808273ffffffffffffffffffffffffffffffffffffffff16610dd283610776565b73ffffffffffffffffffffffffffffffffffffffff167f8c5be1e5ebec7d5bd14f71427d1e84f3dd0314c0f7b2291e5b200ac8c7c3b92560405160405180910390a45050565b6000610e2382610ceb565b610e62576040517f08c379a0000000000000000000000000000000000000000000000000000000008152600401610e5990612d16565b60405180910390fd5b6000610e6d83610776565b90508073ffffffffffffffffffffffffffffffffffffffff168473ffffffffffffffffffffffffffffffffffffffff161480610edc57508373ffffffffffffffffffffffffffffffffffffffff16610ec484610436565b73ffffffffffffffffffffffffffffffffffffffff16145b80610eed5750610eec8185610bdd565b5b91505092915050565b8273ffffffffffffffffffffffffffffffffffffffff16610f1682610776565b73ffffffffffffffffffffffffffffffffffffffff1614610f6c576040517f08c379a0000000000000000000000000000000000000000000000000000000008152600401610f6390612da8565b60405180910390fd5b600073ffffffffffffffffffffffffffffffffffffffff168273ffffffffffffffffffffffffffffffffffffffff161415610fdc576040517f08c379a0000000000000000000000000000000000000000000000000000000008152600401610fd390612e3a565b60405180910390fd5b610fe7838383611498565b610ff2600082610d5f565b6001600360008573ffffffffffffffffffffffffffffffffffffffff1673ffffffffffffffffffffffffffffffffffffffff16815260200190815260200160002060008282546110429190612e89565b925050819055506001600360008473ffffffffffffffffffffffffffffffffffffffff1673ffffffffffffffffffffffffffffffffffffffff16815260200190815260200160002060008282546110999190612ebd565b92505081905550816002600083815260200190815260200160002060006101000a81548173ffffffffffffffffffffffffffffffffffffffff021916908373ffffffffffffffffffffffffffffffffffffffff160217905550808273ffffffffffffffffffffffffffffffffffffffff168473ffffffffffffffffffffffffffffffffffffffff167fddf252ad1be2c89b69c2b068fc378daa952ba7f163c4a11628f55a4df523b3ef60405160405180910390a4505050565b61115d848484610ef6565b611169848484846114a8565b6111a8576040517f08c379a000000000000000000000000000000000000000000000000000000000815260040161119f90612f85565b60405180910390fd5b50505050565b60606111b982610ceb565b6111f8576040517f08c379a00000000000000000000000000000000000000000000000000000000081526004016111ef90613017565b60405180910390fd5b6000600a60008481526020019081526020016000208054611218906126b5565b80601f0160208091040260200160405190810160405280929190818152602001828054611244906126b5565b80156112915780601f1061126657610100808354040283529160200191611291565b820191906000526020600020905b81548152906001019060200180831161127457829003601f168201915b5050505050905060006112a261163f565b90506000815114156112b85781925050506112fb565b6000825111156112ed5780826040516020016112d5929190613073565b604051602081830303815290604052925050506112fb565b6112f684611656565b925050505b919050565b600081600001549050919050565b6001816000016000828254019250508190555050565b61133e8282604051806020016040528060008152506116fd565b5050565b61134b82610ceb565b61138a576040517f08c379a000000000000000000000000000000000000000000000000000000000815260040161138190613109565b60405180910390fd5b80600a600084815260200190815260200160002090805190602001906113b1929190611f23565b505050565b60007f80ac58cd000000000000000000000000000000000000000000000000000000007bffffffffffffffffffffffffffffffffffffffffffffffffffffffff1916827bffffffffffffffffffffffffffffffffffffffffffffffffffffffff1916148061148157507f5b5e139f000000000000000000000000000000000000000000000000000000007bffffffffffffffffffffffffffffffffffffffffffffffffffffffff1916827bffffffffffffffffffffffffffffffffffffffffffffffffffffffff1916145b80611491575061149082611758565b5b9050919050565b6114a38383836117c2565b505050565b60006114c98473ffffffffffffffffffffffffffffffffffffffff166118d6565b15611632578373ffffffffffffffffffffffffffffffffffffffff1663150b7a026114f2610d57565b8786866040518563ffffffff1660e01b8152600401611514949392919061317e565b602060405180830381600087803b15801561152e57600080fd5b505af192505050801561155f57506040513d601f19601f8201168201806040525081019061155c91906131df565b60015b6115e2573d806000811461158f576040519150601f19603f3d011682016040523d82523d6000602084013e611594565b606091505b506000815114156115da576040517f08c379a00000000000000000000000000000000000000000000000000000000081526004016115d190612f85565b60405180910390fd5b805181602001fd5b63150b7a0260e01b7bffffffffffffffffffffffffffffffffffffffffffffffffffffffff1916817bffffffffffffffffffffffffffffffffffffffffffffffffffffffff191614915050611637565b600190505b949350505050565b606060405180602001604052806000815250905090565b606061166182610ceb565b6116a0576040517f08c379a00000000000000000000000000000000000000000000000000000000081526004016116979061327e565b60405180910390fd5b60006116aa61163f565b905060008151116116ca57604051806020016040528060008152506116f5565b806116d4846118e9565b6040516020016116e5929190613073565b6040516020818303038152906040525b915050919050565b6117078383611a4a565b61171460008484846114a8565b611753576040517f08c379a000000000000000000000000000000000000000000000000000000000815260040161174a90612f85565b60405180910390fd5b505050565b60007f01ffc9a7000000000000000000000000000000000000000000000000000000007bffffffffffffffffffffffffffffffffffffffffffffffffffffffff1916827bffffffffffffffffffffffffffffffffffffffffffffffffffffffff1916149050919050565b6117cd838383611c18565b600073ffffffffffffffffffffffffffffffffffffffff168373ffffffffffffffffffffffffffffffffffffffff1614156118105761180b81611c1d565b61184f565b8173ffffffffffffffffffffffffffffffffffffffff168373ffffffffffffffffffffffffffffffffffffffff161461184e5761184d8382611c66565b5b5b600073ffffffffffffffffffffffffffffffffffffffff168273ffffffffffffffffffffffffffffffffffffffff1614156118925761188d81611dd3565b6118d1565b8273ffffffffffffffffffffffffffffffffffffffff168273ffffffffffffffffffffffffffffffffffffffff16146118d0576118cf8282611ea4565b5b5b505050565b600080823b905060008111915050919050565b60606000821415611931576040518060400160405280600181526020017f30000000000000000000000000000000000000000000000000000000000000008152509050611a45565b600082905060005b6000821461196357808061194c9061329e565b915050600a8261195c9190613316565b9150611939565b60008167ffffffffffffffff81111561197f5761197e61239b565b5b6040519080825280601f01601f1916602001820160405280156119b15781602001600182028036833780820191505090505b5090505b60008514611a3e576001826119ca9190612e89565b9150600a856119d99190613347565b60306119e59190612ebd565b60f81b8183815181106119fb576119fa612a53565b5b60200101907effffffffffffffffffffffffffffffffffffffffffffffffffffffffffffff1916908160001a905350600a85611a379190613316565b94506119b5565b8093505050505b919050565b600073ffffffffffffffffffffffffffffffffffffffff168273ffffffffffffffffffffffffffffffffffffffff161415611aba576040517f08c379a0000000000000000000000000000000000000000000000000000000008152600401611ab1906133c4565b60405180910390fd5b611ac381610ceb565b15611b03576040517f08c379a0000000000000000000000000000000000000000000000000000000008152600401611afa90613430565b60405180910390fd5b611b0f60008383611498565b6001600360008473ffffffffffffffffffffffffffffffffffffffff1673ffffffffffffffffffffffffffffffffffffffff1681526020019081526020016000206000828254611b5f9190612ebd565b92505081905550816002600083815260200190815260200160002060006101000a81548173ffffffffffffffffffffffffffffffffffffffff021916908373ffffffffffffffffffffffffffffffffffffffff160217905550808273ffffffffffffffffffffffffffffffffffffffff16600073ffffffffffffffffffffffffffffffffffffffff167fddf252ad1be2c89b69c2b068fc378daa952ba7f163c4a11628f55a4df523b3ef60405160405180910390a45050565b505050565b6008805490506009600083815260200190815260200160002081905550600881908060018154018082558091505060019003906000526020600020016000909190919091505550565b60006001611c7384610828565b611c7d9190612e89565b9050600060076000848152602001908152602001600020549050818114611d62576000600660008673ffffffffffffffffffffffffffffffffffffffff1673ffffffffffffffffffffffffffffffffffffffff168152602001908152602001600020600084815260200190815260200160002054905080600660008773ffffffffffffffffffffffffffffffffffffffff1673ffffffffffffffffffffffffffffffffffffffff168152602001908152602001600020600084815260200190815260200160002081905550816007600083815260200190815260200160002081905550505b6007600084815260200190815260200160002060009055600660008573ffffffffffffffffffffffffffffffffffffffff1673ffffffffffffffffffffffffffffffffffffffff16815260200190815260200160002060008381526020019081526020016000206000905550505050565b60006001600880549050611de79190612e89565b9050600060096000848152602001908152602001600020549050600060088381548110611e1757611e16612a53565b5b906000526020600020015490508060088381548110611e3957611e38612a53565b5b906000526020600020018190555081600960008381526020019081526020016000208190555060096000858152602001908152602001600020600090556008805480611e8857611e87613450565b5b6001900381819060005260206000200160009055905550505050565b6000611eaf83610828565b905081600660008573ffffffffffffffffffffffffffffffffffffffff1673ffffffffffffffffffffffffffffffffffffffff168152602001908152602001600020600083815260200190815260200160002081905550806007600084815260200190815260200160002081905550505050565b828054611f2f906126b5565b90600052602060002090601f016020900481019282611f515760008555611f98565b82601f10611f6a57805160ff1916838001178555611f98565b82800160010185558215611f98579182015b82811115611f97578251825591602001919060010190611f7c565b5b509050611fa59190611fa9565b5090565b5b80821115611fc2576000816000905550600101611faa565b5090565b6000604051905090565b600080fd5b600080fd5b60007fffffffff0000000000000000000000000000000000000000000000000000000082169050919050565b61200f81611fda565b811461201a57600080fd5b50565b60008135905061202c81612006565b92915050565b60006020828403121561204857612047611fd0565b5b60006120568482850161201d565b91505092915050565b60008115159050919050565b6120748161205f565b82525050565b600060208201905061208f600083018461206b565b92915050565b600081519050919050565b600082825260208201905092915050565b60005b838110156120cf5780820151818401526020810190506120b4565b838111156120de576000848401525b50505050565b6000601f19601f8301169050919050565b600061210082612095565b61210a81856120a0565b935061211a8185602086016120b1565b612123816120e4565b840191505092915050565b6000602082019050818103600083015261214881846120f5565b905092915050565b6000819050919050565b61216381612150565b811461216e57600080fd5b50565b6000813590506121808161215a565b92915050565b60006020828403121561219c5761219b611fd0565b5b60006121aa84828501612171565b91505092915050565b600073ffffffffffffffffffffffffffffffffffffffff82169050919050565b60006121de826121b3565b9050919050565b6121ee816121d3565b82525050565b600060208201905061220960008301846121e5565b92915050565b612218816121d3565b811461222357600080fd5b50565b6000813590506122358161220f565b92915050565b6000806040838503121561225257612251611fd0565b5b600061226085828601612226565b925050602061227185828601612171565b9150509250929050565b61228481612150565b82525050565b600060208201905061229f600083018461227b565b92915050565b6000806000606084860312156122be576122bd611fd0565b5b60006122cc86828701612226565b93505060206122dd86828701612226565b92505060406122ee86828701612171565b9150509250925092565b60006020828403121561230e5761230d611fd0565b5b600061231c84828501612226565b91505092915050565b61232e8161205f565b811461233957600080fd5b50565b60008135905061234b81612325565b92915050565b6000806040838503121561236857612367611fd0565b5b600061237685828601612226565b92505060206123878582860161233c565b9150509250929050565b600080fd5b600080fd5b7f4e487b7100000000000000000000000000000000000000000000000000000000600052604160045260246000fd5b6123d3826120e4565b810181811067ffffffffffffffff821117156123f2576123f161239b565b5b80604052505050565b6000612405611fc6565b905061241182826123ca565b919050565b600067ffffffffffffffff8211156124315761243061239b565b5b61243a826120e4565b9050602081019050919050565b82818337600083830152505050565b600061246961246484612416565b6123fb565b90508281526020810184848401111561248557612484612396565b5b612490848285612447565b509392505050565b600082601f8301126124ad576124ac612391565b5b81356124bd848260208601612456565b91505092915050565b600080600080608085870312156124e0576124df611fd0565b5b60006124ee87828801612226565b94505060206124ff87828801612226565b935050604061251087828801612171565b925050606085013567ffffffffffffffff81111561253157612530611fd5565b5b61253d87828801612498565b91505092959194509250565b600067ffffffffffffffff8211156125645761256361239b565b5b61256d826120e4565b9050602081019050919050565b600061258d61258884612549565b6123fb565b9050828152602081018484840111156125a9576125a8612396565b5b6125b4848285612447565b509392505050565b600082601f8301126125d1576125d0612391565b5b81356125e184826020860161257a565b91505092915050565b6000806040838503121561260157612600611fd0565b5b600061260f85828601612226565b925050602083013567ffffffffffffffff8111156126305761262f611fd5565b5b61263c858286016125bc565b9150509250929050565b6000806040838503121561265d5761265c611fd0565b5b600061266b85828601612226565b925050602061267c85828601612226565b9150509250929050565b7f4e487b7100000000000000000000000000000000000000000000000000000000600052602260045260246000fd5b600060028204905060018216806126cd57607f821691505b602082108114156126e1576126e0612686565b5b50919050565b7f4552433732313a20617070726f76656420717565727920666f72206e6f6e657860008201527f697374656e7420746f6b656e0000000000000000000000000000000000000000602082015250565b6000612743602c836120a0565b915061274e826126e7565b604082019050919050565b6000602082019050818103600083015261277281612736565b9050919050565b7f4552433732313a20617070726f76616c20746f2063757272656e74206f776e6560008201527f7200000000000000000000000000000000000000000000000000000000000000602082015250565b60006127d56021836120a0565b91506127e082612779565b604082019050919050565b60006020820190508181036000830152612804816127c8565b9050919050565b7f4552433732313a20617070726f76652063616c6c6572206973206e6f74206f7760008201527f6e6572206e6f7220617070726f76656420666f7220616c6c0000000000000000602082015250565b60006128676038836120a0565b91506128728261280b565b604082019050919050565b600060208201905081810360008301526128968161285a565b9050919050565b7f4552433732313a207472616e736665722063616c6c6572206973206e6f74206f60008201527f776e6572206e6f7220617070726f766564000000000000000000000000000000602082015250565b60006128f96031836120a0565b91506129048261289d565b604082019050919050565b60006020820190508181036000830152612928816128ec565b9050919050565b7f455243373231456e756d657261626c653a206f776e657220696e646578206f7560008201527f74206f6620626f756e6473000000000000000000000000000000000000000000602082015250565b600061298b602b836120a0565b91506129968261292f565b604082019050919050565b600060208201905081810360008301526129ba8161297e565b9050919050565b7f455243373231456e756d657261626c653a20676c6f62616c20696e646578206f60008201527f7574206f6620626f756e64730000000000000000000000000000000000000000602082015250565b6000612a1d602c836120a0565b9150612a28826129c1565b604082019050919050565b60006020820190508181036000830152612a4c81612a10565b9050919050565b7f4e487b7100000000000000000000000000000000000000000000000000000000600052603260045260246000fd5b7f4552433732313a206f776e657220717565727920666f72206e6f6e657869737460008201527f656e7420746f6b656e0000000000000000000000000000000000000000000000602082015250565b6000612ade6029836120a0565b9150612ae982612a82565b604082019050919050565b60006020820190508181036000830152612b0d81612ad1565b9050919050565b7f4552433732313a2062616c616e636520717565727920666f7220746865207a6560008201527f726f206164647265737300000000000000000000000000000000000000000000602082015250565b6000612b70602a836120a0565b9150612b7b82612b14565b604082019050919050565b60006020820190508181036000830152612b9f81612b63565b9050919050565b7f4552433732313a20617070726f766520746f2063616c6c657200000000000000600082015250565b6000612bdc6019836120a0565b9150612be782612ba6565b602082019050919050565b60006020820190508181036000830152612c0b81612bcf565b9050919050565b7f536f7272792c20616c6c204e4654732068617665206265656e206d696e74656460008201527f2100000000000000000000000000000000000000000000000000000000000000602082015250565b6000612c6e6021836120a0565b9150612c7982612c12565b604082019050919050565b60006020820190508181036000830152612c9d81612c61565b9050919050565b7f4552433732313a206f70657261746f7220717565727920666f72206e6f6e657860008201527f697374656e7420746f6b656e0000000000000000000000000000000000000000602082015250565b6000612d00602c836120a0565b9150612d0b82612ca4565b604082019050919050565b60006020820190508181036000830152612d2f81612cf3565b9050919050565b7f4552433732313a207472616e73666572206f6620746f6b656e2074686174206960008201527f73206e6f74206f776e0000000000000000000000000000000000000000000000602082015250565b6000612d926029836120a0565b9150612d9d82612d36565b604082019050919050565b60006020820190508181036000830152612dc181612d85565b9050919050565b7f4552433732313a207472616e7366657220746f20746865207a65726f2061646460008201527f7265737300000000000000000000000000000000000000000000000000000000602082015250565b6000612e246024836120a0565b9150612e2f82612dc8565b604082019050919050565b60006020820190508181036000830152612e5381612e17565b9050919050565b7f4e487b7100000000000000000000000000000000000000000000000000000000600052601160045260246000fd5b6000612e9482612150565b9150612e9f83612150565b925082821015612eb257612eb1612e5a565b5b828203905092915050565b6000612ec882612150565b9150612ed383612150565b9250827fffffffffffffffffffffffffffffffffffffffffffffffffffffffffffffffff03821115612f0857612f07612e5a565b5b828201905092915050565b7f4552433732313a207472616e7366657220746f206e6f6e20455243373231526560008201527f63656976657220696d706c656d656e7465720000000000000000000000000000602082015250565b6000612f6f6032836120a0565b9150612f7a82612f13565b604082019050919050565b60006020820190508181036000830152612f9e81612f62565b9050919050565b7f45524337323155524953746f726167653a2055524920717565727920666f722060008201527f6e6f6e6578697374656e7420746f6b656e000000000000000000000000000000602082015250565b60006130016031836120a0565b915061300c82612fa5565b604082019050919050565b6000602082019050818103600083015261303081612ff4565b9050919050565b600081905092915050565b600061304d82612095565b6130578185613037565b93506130678185602086016120b1565b80840191505092915050565b600061307f8285613042565b915061308b8284613042565b91508190509392505050565b7f45524337323155524953746f726167653a2055524920736574206f66206e6f6e60008201527f6578697374656e7420746f6b656e000000000000000000000000000000000000602082015250565b60006130f3602e836120a0565b91506130fe82613097565b604082019050919050565b60006020820190508181036000830152613122816130e6565b9050919050565b600081519050919050565b600082825260208201905092915050565b600061315082613129565b61315a8185613134565b935061316a8185602086016120b1565b613173816120e4565b840191505092915050565b600060808201905061319360008301876121e5565b6131a060208301866121e5565b6131ad604083018561227b565b81810360608301526131bf8184613145565b905095945050505050565b6000815190506131d981612006565b92915050565b6000602082840312156131f5576131f4611fd0565b5b6000613203848285016131ca565b91505092915050565b7f4552433732314d657461646174613a2055524920717565727920666f72206e6f60008201527f6e6578697374656e7420746f6b656e0000000000000000000000000000000000602082015250565b6000613268602f836120a0565b91506132738261320c565b604082019050919050565b600060208201905081810360008301526132978161325b565b9050919050565b60006132a982612150565b91507fffffffffffffffffffffffffffffffffffffffffffffffffffffffffffffffff8214156132dc576132db612e5a565b5b600182019050919050565b7f4e487b7100000000000000000000000000000000000000000000000000000000600052601260045260246000fd5b600061332182612150565b915061332c83612150565b92508261333c5761333b6132e7565b5b828204905092915050565b600061335282612150565b915061335d83612150565b92508261336d5761336c6132e7565b5b828206905092915050565b7f4552433732313a206d696e7420746f20746865207a65726f2061646472657373600082015250565b60006133ae6020836120a0565b91506133b982613378565b602082019050919050565b600060208201905081810360008301526133dd816133a1565b9050919050565b7f4552433732313a20746f6b656e20616c7265616479206d696e74656400000000600082015250565b600061341a601c836120a0565b9150613425826133e4565b602082019050919050565b600060208201905081810360008301526134498161340d565b9050919050565b7f4e487b7100000000000000000000000000000000000000000000000000000000600052603160045260246000fdfea2646970667358221220eaab4df2da821dae4511e5c4822ad7211211369c671a5b9269770542fdfbd4ad64736f6c63430008090033",
  "linkReferences": {},
  "deployedLinkReferences": {}
}